:020000040800F2
:1000000060070020A1030008190200081B02000875
:100010001D0200081F020008210200080000000065
:1000200000000000000000000000000023020008A3
:10003000250200080000000027020008290200082D
:10004000BB030008BB030008BB030008BB03000898
:10005000BB030008BB030008BB030008BB03000888
:10006000BB030008BB030008BB030008BB03000878
:10007000BB030008BB030008BB030008BB03000868
:10008000BB030008BB030008BB030008BB03000858
:10009000BB030008BB030008BB030008BB03000848
:1000A000BB030008BB030008BB030008BB03000838
:1000B000BB030008BB030008BB030008BB03000828
:1000C000BB030008BB030008BB030008BB03000818
:1000D000BB030008B9110008BB030008BB030008FC
:1000E000BB030008BB030008BB030008BB030008F8
:1000F000BB030008BB030008BB030008BB030008E8
:10010000BB030008BB030008BB030008BB030008D7
:10011000BB030008BB030008BB030008BB030008C7
:10012000BB030008BB030008BB030008BB030008B7
:1001300000F002F800F03AF80AA090E8000C8244BF
:100140008344AAF10107DA4501D100F02FF8AFF29C
:10015000090EBAE80F0013F0010F18BFFB1A43F0A5
:1001600001031847AC170000CC170000103A24BF59
:1001700078C878C1FAD8520724BF30C830C144BF0C
:1001800004680C607047000000230024002500264E
:10019000103A28BF78C1FBD8520728BF30C148BFEA
:1001A0000B6070471FB51FBD10B510BD01F06AFB95
:1001B0001146FFF7F7FF00F009F801F09CFB03B4CC
:1001C000FFF7F2FF03BC00F0A1FF000000F052FFB8
:1001D0004FF4E13000F0A4FF01F030F901F0E2FA51
:1001E0004FF4FC64204601F013F909A001F00CFB68
:1001F0004FF47845204601F00BF9052000F068FF28
:10020000284601F005F9052000F062FFF2E7000042
:100210006F6B200D0A0000007047FEE7FEE7FEE767
:10022000FEE7704770477047704700000CB500222A
:10023000019200925248016841F4803101604FF40C
:10024000A063016801F4003100910199491C0191FA
:10025000009911B901999942F3D10168890302D536
:100260000121009100E000920099012930D1454917
:100270000A6842F010020A600A6822F003020A606B
:100280000A6842F002020A604168416041684160C8
:10029000416841F480614160416821F47C11416012
:1002A000416841F4E8114160016841F080710160EA
:1002B00001688901FCD5416821F003014160416872
:1002C00041F0020141604168C1F381010229FAD184
:1002D0000CBDABE710B52A48016841F0010101608F
:1002E0004168294A114041600168284A1140016073
:1002F000016821F480210160416821F4FE01416020
:100300004FF41F018160FFF7E4FF21494FF00060C7
:10031000086010BD10B51A4A506800F00C011D4B62
:100320001D4800290ED004290ED008290ED00360E4
:100330005168194AC1F30311121D515C0268CA4089
:10034000026010BD0360F3E70360F1E7516801F458
:100350007011536803F48033022404EB914133B1EC
:1003600053689B0307D50D4B59430160E0E70B4BE6
:1003700059430160DCE7074B59430160D8E70000AF
:1003800000100240002002400000FFF8FFFFF6FED0
:1003900008ED00E000127A000000002000093D0096
:1003A0000948804709480047FEE7FEE7FEE7FEE709
:1003B000FEE7FEE7FEE7FEE7FEE7FEE70448054945
:1003C000054A064B70470000D502000831010008BD
:1003D000600100206007002060030020600300200F
:1003E0002A4908432A490860704770B50F23C2782C
:1003F00001260178002A1ED0254A126802F4E06224
:10040000C2F5E062120AC2F10404D3404578A54067
:1004100082781A402A43120101F1E02181F8002478
:10042000007800F01F018E404009800000F1E020BC
:10043000C0F8006170BD01F01F00864048098000CF
:1004400000F1E020C0F8806170BD124A1140014304
:100450000F48001F016070470D4A121D002903D08C
:100460001168014311607047116881431160704742
:100470004FF0E021042804D0086920F0040008614E
:100480007047086940F00400086170470000FA05F1
:100490000CED00E080FFFF1F10B59C49884209D198
:1004A0000121042000F07DFA0021BDE81040042065
:1004B00000F077BA9649884209D10121082000F05E
:1004C00070FA0021BDE81040082000F06ABA914996
:1004D000884209D10121102000F063FA0021BDE813
:1004E0001040102000F05DBA8B49884209D10121EB
:1004F000202000F056FA0021BDE81040202000F036
:1005000050BA8649884209D10121402000F049FAB9
:100510000021BDE81040402000F043BA80498842E5
:1005200009D10121802000F03CFA0021BDE81040F3
:10053000802000F036BA7B4988420AD18415012117
:10054000204600F02EFA2046BDE81040002100F0C1
:1005500028BA10BD10B50121084600F022FA00218A
:10056000BDE81040012000F01CBA2DE9F041002246
:10057000CC7804F00F03E40601D58C7823430C7883
:100580004FF00F0714F0FF0F4FF0010C1CD005685F
:100590000CFA02F40E882640A64211D1960007FA02
:1005A00006F825EA080503FA06F848EA0505CE78B4
:1005B000282E02D0482E02D002E0446100E00461FF
:1005C000521C082AE4D305600A88FF2A1ED9456810
:1005D000002202F108060CFA06F40E882640A64214
:1005E00010D1960007FA06F825EA080503FA06F87E
:1005F00048EA0505CE78282E00D14461CE78482EF1
:1006000000D10461521C082AE3D34560BDE8F081A3
:100610004FF6FF710180022181700421C170704783
:100620000246002092680A4200D00120704780688C
:1006300080B2704702460020D2680A4200D00120F2
:100640007047C06880B27047016170474161704770
:10065000002A01D00161704741617047C160704755
:1006600041F4803282618161826181698069704771
:1006700010B52D4B1A684FF68074224042EA0010E4
:100680000843186010BD2949C8617047F0B5264C71
:10069000002801DAE36900E06368C0F30346420D15
:1006A000120185B2C0F301579540032F07D0C20253
:1006B0000CD50322B240934343F0706209E023F06B
:1006C0007062636823F07063636002E0AB4343F0E1
:1006D000706201B12A43002801DAE261F0BD626074
:1006E000F0BD10B58A07120F0F23934021F00304C9
:1006F0000D4921448C689C438C608B689040034377
:100700008B6010BD0949DC3108607047000801406A
:10071000000C01400010014000140140001801408D
:10072000001C014000200140000001400000204268
:10073000B448016841F0010101604168B24A1140CA
:1007400041600168B14A11400160016821F48021D3
:100750000160416821F4FE0141604FF41F01816096
:100760007047A8490A6822F480320A600A6822F4B5
:1007700080220A60B0F5803F07D0B0F5802F03D10A
:10078000086840F4A02008607047086840F4803092
:10079000086070470346002059099A4A01290AD087
:1007A00002290AD0516A03F01F02012393400B4231
:1007B00000D0012070471168F5E7116AF3E718B51A
:1007C000002000904FF4A0643120FFF7E3FF009970
:1007D000491C00910099A14201D00028F4D0312099
:1007E000FFF7D8FF08B1012018BD002018BD854AC9
:1007F000116821F0F80141EAC00010607047844997
:10080000086070477F4B5A6822F47C1208431043FB
:10081000586070477E49086670477A4A516821F0EF
:1008200003010143516070477648406800F00C00B6
:100830007047744A516821F0F001014351607047DC
:10084000704A516821F4E0610143516070476D4A7C
:10085000516821F4605141EAC00050607047694A14
:10086000002903D0517A014351727047517A814374
:10087000517270476649D83108607047614A5168C3
:1008800021F440410143516070475E49002220310C
:100890000A7001F82029012805D0042802D105207A
:1008A00081F820007047012081F8200070475949E5
:1008B0000860704753490A6A02430A627047554903
:1008C00044390860704710B54E4A516801F00C0178
:1008D000514B002927D0042927D0082927D00360AD
:1008E000516801F0F00109094C4B5C5C0168E14082
:1008F0004160546804F4E064240A1C5D21FA04F4A5
:100900008460546804F46054E40A1B5DD940C160FB
:10091000526802F44042920B404B1B1F9A5CB1FBA1
:10092000F2F1016110BD0360DAE70360D8E75168B6
:1009300001F47011536803F48033022404EB9141F5
:1009400033B153689B0307D5354B59430160C7E763
:10095000334B59430160C3E72F4B59430160BFE755
:10096000284A002903D051690143516170475169F8
:10097000814351617047234A002903D091690143A3
:100980009161704791698143916170471D4A0029C7
:1009900003D0D1690143D1617047D1698143D161ED
:1009A0007047184A002903D0D1680143D1607047CD
:1009B000D1688143D1607047124A002903D0116980
:1009C00001431161704711698143116170471149F9
:1009D0004039086070470E49C86470470949C871BA
:1009E00070470848416A41F0807141627047014692
:1009F0000020044A92680A4200D001207047014951
:100A000088727047001002400000FFF8FFFFF6FEFA
:100A1000000042428004424200127A001800002086
:100A200000093D0010B5A94988420AD1841401216A
:100A30002046FFF7B6FF2046BDE810400021FFF733
:100A4000B0BFA34988420AD1041401212046FFF710
:100A5000B3FF2046BDE810400021FFF7ADBF9D4920
:100A600088420AD1C41301212046FFF7A5FF204682
:100A7000BDE810400021FFF79FBF10BD30B50288D0
:100A800002F441530A884C88CD8822438C882C4339
:100A900022430C8922434C8922438C892243CC89EE
:100AA00022431A430280828B22F400628283098AE5
:100AB000018230BDF0B585B005460C46022000210C
:100AC0000126AA8B4FF240031A40AA8302222A84ED
:100AD000AF8BA268022A21D0A08800B10226684606
:100AE000FFF7F1FE0098E188B1F5007F2CD071018D
:100AF000B0FBF1F000EB8000A1684000B0FBF1F02A
:100B0000401D80B20A21B0FBF1F000F00101401A53
:100B1000C0F34F004FF6FF7202EA0121821EFE2A47
:100B200001D302200021E288084302432A8420885E
:100B30006188A2890843A18811430843384340F4DF
:100B40000060A88305B0F0BD000A00EB8000A1683A
:100B50004000B0FBF1F0401D80B2D3E700210180DE
:100B600041808180C180018141818181C1810721D2
:100B7000018270470021018041808180C180022272
:100B8000826081817047002904D0018841F04001D2
:100B900001807047018821F04001018070470029E1
:100BA00004D0818B41F4806181837047818B21F473
:100BB000806181837047090901238B4099B2002A23
:100BC00003D082880A438280704782888A43828069
:100BD0007047002A03D082880A4382807047828847
:100BE0008A43828070478181704780897047A1F570
:100BF0007E42FF3A04D0018841F480710180704741
:100C0000018821F4807101807047002904D0818817
:100C100041F0040181807047818821F004018180C6
:100C20007047028822F40062028002880A43028030
:100C30007047018841F4805101807047002904D039
:100C4000018841F4005101807047018821F400516E
:100C500001807047012901D0008B7047808A70475E
:100C6000008A7047B1F5804F04D0018821F480419B
:100C700001807047018841F480410180704702463D
:100C8000002012890A4200D001207047C943018127
:100C9000704730B50246002001F00F03012505FA28
:100CA00003F4A3B2090905FA01F4A4B29188214022
:100CB00012891A4202D0002900D0012030BD01F073
:100CC0000F0201219140C94301817047003001406A
:100CD00000380040003C004010B5E14988420AD18C
:100CE00001218C032046FFF75CFE2046BDE8104042
:100CF0000021FFF756BEDB4988420AD101214C048E
:100D00002046FFF759FE2046BDE810400021FFF7BE
:100D100053BED54988420AD101218C042046FFF7F1
:100D20004BFE2046BDE810400021FFF745BECF49ED
:100D300088420AD10121CC042046FFF73DFE20461F
:100D4000BDE810400021FFF737BEC94988420AD1EB
:100D500001210C052046FFF72FFE2046BDE810407C
:100D60000021FFF729BE10BD30B585B004460D4601
:100D7000208A4CF6FF710840E98801432182A0894E
:100D80004EF6F3110840A9882A8911436A89024363
:100D90001143A181A08A4FF6FF410840A989014370
:100DA000A1826846FFF78FFDAD48844201D10398C8
:100DB00000E00298A189090408D500EBC00101EB0D
:100DC000001029684900B0FBF1F007E000EBC0011A
:100DD00001EB001029688900B0FBF1F06422B0FB40
:100DE000F2F109010B096FF018056B4300EB83006A
:100DF000A3891D044FF0320307D503EBC000B0FBFD
:100E0000F2F000F00700084306E003EB0010B0FB2F
:100E1000F2F000F00F000843208105B030BD4FF420
:100E20001651016000218180C18001810C22428124
:100E30008181704710B5038A4FF2FF0213400A8880
:100E40004C8822438C88C9880C4322431A4302826F
:100E500010BD0021018041808180C1807047002940
:100E600004D0818941F4005181817047818921F446
:100E700000518181704710B540F66A13C1F34213E7
:100E800001F01F040121A140012B07D0022B07D044
:100E900014303AB102680A43026010BD0C30F8E722
:100EA0001030F6E702688A43026010BD002A03D0C2
:100EB000828A0A4382827047828A8A43828270478A
:100EC000028A22F00F020282028A0A4302827047DB
:100ED000828922F40062828182890A43828170477A
:100EE000002904D0818941F0020181817047818904
:100EF00021F0020181817047028A22F020020282E1
:100F0000028A0A4302827047002904D0018A41F410
:100F1000804101827047018A21F48041018270473B
:100F2000C1F30801818070478088C0F308007047D2
:100F3000818941F0010181817047028BD2B2028325
:100F4000028B42EA012101837047028B02F47F4247
:100F50000283028B0A4302837047002904D0818AEE
:100F600041F0200181827047818A21F02001818235
:100F70007047002904D0818A41F0100181827047B6
:100F8000818A21F0100181827047002904D0818A72
:100F900041F0080181827047818A21F00801818235
:100FA0007047002904D0818941F400418181704754
:100FB0008189C1F30E0181817047002904D0818AA3
:100FC00041F4006181827047818A21F4006181824D
:100FD0007047828A22F004028282828A0A438282D5
:100FE0007047002904D0818A41F002018182704754
:100FF000818A21F002018182704702460020128816
:101000000A4200D0012070478A05C9430180704719
:1010100070B5002440F66A12C1F3421301F01F05B7
:10102000012606FA05F2012B0CD0022B0DD0838A83
:101030001340090A8E40008830400BB100B10124F2
:10104000204670BD83891340F3E7038A1340F0E71D
:1010500040F66A120A0A01219140C9430180704793
:10106000003801400044004000480040004C00406F
:101070000050004010B56FF00400FFF7F9F9204868
:1010800020490068B0FBF1F01F49C0B2087000EBC6
:101090004002C2EBC0104FF6FF7202EAC000488067
:1010A00010BD1949097848434FF0E02148610023F9
:1010B0008B61086940F0010008610869C20701D02E
:1010C000C003FAD5086920F0010008618B61704700
:1010D0000D49498848434FF0E021486100238B6166
:1010E000086940F0010008610869C20701D0C00327
:1010F000FAD5086920F0010008618B617047000093
:101100000000002000127A002800002070474149AA
:101110000A885206FCD53F4AC1B2121D11807047A1
:1011200070B586B00546012144F20400FFF723FCA8
:101130004FF40070ADF8140003248DF81640182108
:101140008DF81710344E05A93046FFF70EFA311509
:10115000ADF8141004218DF8171005A93046FFF7DB
:1011600004FA25208DF800008DF801408DF802402A
:1011700001208DF803006846FFF737F9019500203C
:10118000ADF80800ADF80A00ADF80C00ADF810009D
:101190000C20ADF80E001F4C01A92046FFF7E4FD1E
:1011A000012240F225512046FFF765FE012120462D
:1011B000FFF755FE06B070BD70B5164C40F22551D4
:1011C0002046FFF725FF00280ED02046FFF7ACFE93
:1011D000C1B2124A1088030406D444044FF000033D
:1011E00007D50A2901D0138070BD40F4004010805B
:1011F00070BD0D290AD00A4DC0F30D042955401CBD
:1012000080B21080C728F3D9138070BD40F48040AD
:10121000108070BD00380140000801402C00002003
:101220003400002010B586B0012141F20400FFF720
:10123000A2FBA020ADF8140018208DF817000320A1
:101240008DF81600264C05A92046FFF78EF9A0213F
:101250002046FFF7F9F90020ADF800004FF4827145
:10126000ADF80210ADF804000221ADF8061001211E
:10127000ADF808104902ADF80A102821ADF80C109D
:10128000ADF80E00ADF81000164C69462046FFF789
:10129000F5FB01212046FFF776FC06B010BD70B5C6
:1012A0000546104C02212046FFF7E9FC0028F9D042
:1012B00002212046FFF7EAFC29462046FFF793FC6F
:1012C00001212046FFF7DBFC0028F9D00121204650
:1012D000FFF7DCFC2046FFF788FCC0B270BD0000C1
:1012E000000801400030014038B501215420FFF7CB
:1012F00042FB1024ADF800408DF8034003258DF823
:1013000002506946F648FFF730F96020ADF800005A
:101310008DF803408DF802506946F248FFF725F931
:101320006002ADF800008DF803408DF80250694668
:10133000ED48FFF71AF938BD70B5040AC5B2E84E9A
:1013400010213046FFF782F94021E648FFF77CF98B
:101350002046FFF7A4FF2846FFF7A1FF3046BDE86F
:1013600070401021FFF770B970B50546DC4C1021B4
:101370002046FFF76BF94021DA48FFF767F9284666
:10138000FFF78DFF2046BDE870401021FFF75CB9E4
:1013900070B50546D24C10212046FFF757F9402181
:1013A000D048FFF751F92846FFF779FF2046BDE8FE
:1013B00070401021FFF748B92DE9F04105460F466E
:1013C00014461E462A20FFF7CFFF0020FFF7E0FF5C
:1013D000AD1CE8B2FFF7DCFF0020FFF7D9FFA41C2B
:1013E000E0B2FFF7D5FF2B20FFF7BEFF0020FFF78D
:1013F000CFFFBF1CF8B2FFF7CBFF0020FFF7C8FFFD
:10140000B61CF0B2FFF7C4FFBDE8F0412C20ABE7FB
:1014100070B506467F2300211A460846FFF7CCFF29
:10142000002500243046FFF787FF641CA4B2802CFF
:10143000F8D36D1CADB2802DF3D370BD70B5FFF73E
:10144000F1FEFFF751FFA74C20212046FFF7FEF8E1
:1014500040F2DC552846FFF73BFE20212046FFF7EF
:10146000F3F82846FFF734FE2820FFF77DFF112010
:10147000FFF77AFF4FF49660FFF72AFEB120FFF7DF
:1014800073FF0120FFF784FF2C20FFF781FF2D2041
:10149000FFF77EFFB220FFF767FF0120FFF778FF1D
:1014A0002C20FFF775FF2D20FFF772FFB320FFF709
:1014B0005BFF0120FFF76CFF2C20FFF769FF2D2059
:1014C000FFF766FF0120FFF763FF2C20FFF760FFA7
:1014D0002D20FFF75DFFB420FFF746FF0720FFF741
:1014E00057FFC020FFF740FFA220FFF751FF022067
:1014F000FFF74EFF8420FFF74BFFC120FFF734FFBB
:10150000C520FFF745FFC220FFF72EFF0A20FFF797
:101510003FFF0020FFF73CFFC320FFF725FF8A2095
:10152000FFF736FF2A20FFF733FFC420FFF71CFF29
:101530008A20FFF72DFFEE20FFF72AFFC520FFF7D7
:1015400013FF0E20FFF724FF3620FFF70DFFC82002
:10155000FFF71EFFE020FFF707FF0F20FFF718FF40
:101560001A20FFF715FF0F20FFF712FF1820FFF7D3
:101570000FFF2F20FFF70CFF2820FFF709FF202087
:10158000FFF706FF2220FFF703FF1F20FFF700FFF2
:101590001B20FFF7FDFE2320FFF7FAFE3720FFF7A1
:1015A000F7FE0020FFF7F4FE0720FFF7F1FE022010
:1015B000FFF7EEFE1020FFF7EBFEE120FFF7D4FE71
:1015C0000F20FFF7E5FE1B20FFF7E2FE0F20FFF7DD
:1015D000DFFE1720FFF7DCFE3320FFF7D9FE2C20BB
:1015E000FFF7D6FE2920FFF7D3FE2E20FFF7D0FE0F
:1015F0003020FFF7CDFE3020FFF7CAFE3920FFF77D
:10160000C7FE3F20FFF7C4FE0020FFF7C1FE072002
:10161000FFF7BEFE0320FFF7BBFE1020FFF7B8FE6A
:101620002A20FFF7A1FE0020FFF7B2FE0020FFF7FF
:10163000AFFE0020FFF7ACFE7F20FFF7A9FE2B20B6
:10164000FFF792FE0020FFF7A3FE0020FFF7A0FEA9
:101650000020FFF79DFE9F20FFF79AFEF020FFF786
:1016600083FE0120FFF794FEF620FFF77DFE0020A9
:10167000FFF78EFE3A20FFF777FE0520FFF788FE82
:101680002920FFF771FE802300211A460846FFF744
:1016900093FE4FF6FF70FFF7BBFE6114BDE870408C
:1016A0001148FEF7D1BF70B506460C4615462A20F4
:1016B000FFF75AFE3046FFF76BFE3046FFF768FE35
:1016C0002B20FFF751FE2046FFF762FE2046FFF772
:1016D0005FFE2C20FFF748FE2846BDE870402BE651
:1016E0000008014000180140001001402DE9F047BA
:1016F0000546884617461E46DDF820900CE03C461D
:1017000006E04A4621462846FFF7CDFF641CE4B2B6
:10171000B442F6D96D1CEDB24545F0D9BDE8F0876D
:101720002DE9F0470446089F0D4691469A462A2027
:10173000FFF71AFE2046FFF72BFE0F34E0B2FFF74B
:1017400027FE2B20FFF710FE2846FFF721FE0F355E
:10175000E8B2FFF71DFE2C20FFF706FE00254FF034
:10176000010807EB450017F81510407840EA0126FC
:101770000024C4F10F0108FA01F0304204D009F04E
:10178000FF00FFF705FE03E00AF0FF00FFF700FE91
:10179000641CE4B2102CECD36D1CEDB2102DE0D320
:1017A000BCE7000038B501210820FFF7E4F820204D
:1017B000ADF8000010208DF8030003208DF8020022
:1017C0000F4C69462046FEF7D0FE0121ADF800100F
:1017D00069462046FEF7C9FE0221ADF800106946B1
:1017E0002046FEF7C2FE20212046FEF72DFF0121F4
:1017F0002046FEF729FF02212046FEF725FF38BDCF
:10180000000C0140704700000FB4044910B503AA52
:10181000029800F009F810BC5DF814FB30000020BD
:101820007047704770477047074B70B50D467B4453
:1018300000F011F80446284600F020F810B14FF0EF
:10184000FF3070BD204670BDDDF8FFFF01694A1C06
:1018500002610878704700B58FB0CDE901310021F1
:10186000059105497944CDE903101146684600F019
:101870002EF80FB000BD0000E5FFFFFF007B00F079
:1018800080007047754600F03FF8AE460500694697
:10189000534620F00700854618B020B5FEF78EFDB0
:1018A000BDE820404FF000064FF000074FF0000861
:1018B0004FF0000B21F00701AC46ACE8C009ACE8E2
:1018C000C009ACE8C009ACE8C0098D4670472DE9F5
:1018D000F04106460024D6E90170F568804630469E
:1018E00003E04146B847641C3046A8470028F8D1B9
:1018F0002046BDE8F08110B50446AFF300802046D5
:10190000BDE81040FEF75BBC00487047FC000020BB
:101910003019000800000020340000006C010008AD
:1019200064190008340000202C070000880100081A
:1019300000A24A04000000000000000001020304AD
:10194000060708090204060800000000010203045B
:10195000010203040607080900000000000000005F
:041960000000000083
:0400000508000131BD
:00000001FF
